:20000000004B00203D5A0100FDC90110FDC90110FDC90110FDC90110FDC90110FDC90110D3
:1C002000FDC90110FDC90110FDC90110FDC90110FDC90110FDC901103BCA0110A4
:20003C0065050021590400218D04002191040021B904002149060021F9060021210700217C
:20005C00ED0400216307002185070021F8B51047F8B50E4600210125AD0430470A480378F9
:20007C0000F00FF89B070BD0124C2078FF2807D0FF2121700E490F24240220436031C8825D
:20009C00F8BDF8B5014800476B020021E54C0000094801E00848000C064C05492278FF2AA2
:2000BC0001D1CA7A22706031C8827046801C004700620840F0070021070F080800F086F8B2
:2000DC0005990A0A6C2A09D1082078612069401C38600A312061059100207861F8BD000064
:2000FC00F0B4084710B50148004700008909000000F018F8E1B250290BD0042801D00628F8
:20011C0007D10D490978C90703D12178090700D402200A490A780C21114202D008498022B7
:20013C000A60FEBDFEB5074908470448017840229143017004480047C8000021170100210B
:20015C0000E200E0F1CC000003D10000FFB5054685B0034C2047FFB585B0DE01014C2047CA
:20017C00F73F0000CB41000070B503461546012906D0002906D0114A2846FFF767FF70BD07
:20019C000F4800E00F480524834203D84008641E002CF9DCE340012040031818820B0129B3
:2001BC0007D00649002380312846FFF751FFE0B270BD0249044B6C31F6E70000835C0000C3
:2001DC00A0BC862300830D23C0070021F8B51A4E0546716B1948CC09E401002D11D018499D
:2001FC00097802290FD0007B044372B60120154F4002B847114820380088C109C90704D001
:20021C0016E0C07AF0E7407BEEE70F497463CC61400AC0070CD001208003316B002D01D0A4
:20023C00014300E08143084631630749403948630020B84762B6F8BD80020021880000212C
:20025C009B0200217B3F00004040044010B5224A0021516121498968C90009D42149204B6C
:20027C00CA0598424B6B01D8134300E093434B631D49FFF735FF10BD38B51A4D287F0028F0
:20029C0027D11A480088C009C00722D1124C606900281ED1684600F08FF86846007801282B
:2002BC0017D168464078102813D208206061686A4009400120600E4A0021D1620D4A0221CC
:2002DC001160012108432060032108436862206038BD0948804738BD00400440180000212C
:2002FC000000930880020021CF680000680000210011044080E200E0C33B000007490028D7
:20031C0000D00420064A72B60978C90701D0105800E0802062B640B2704700006B020021FC
:20033C005860044010B5034CFFF7DCFE20680028FAD110BD0011044010B541200E49C000E7
:20035C0088470E490246886B496B90244B01C104C90E0B430A496343497D5943094B9B68D0
:20037C00FFF7F9FE10BD10B5FFF7F0FE040001D1FFF7E2FF204610BD7D3C00008050044051
:20039C00800200210040044010B501880A05930F084A03D18905890D112901D0904710BD22
:2003BC0090470446012803D172B6FFF7C5FF62B6204610BD4526000003B40148019001BD1C
:2003DC00A56F000000000000010003000A001F005900EB003902EA04F9099712EB1FA132CB
:2003FC00784A0A66FA828C9E63B617C964D6EDDEC1E3E0E5FF000000A36100007F140713F2
:20041C004D00F1242E1F133FB00A3F0007FF0000304000400140034007400F404F40CF4058
:20043C00CF41CF43CF47CF4FCF3FCF2FCF1FCF0F000000000F00080000003F0000004000DC
:20045C003F000000040068000E00DC00060043001A00050000000000020000003F00000042
:20047C0000000400C00000000400C0000000070050C00091007070C00091007082312100BB
:20049C00319110B10070018101B100A18231329110B101911110418141224F40F106007073
:2004BC0051C0019130181039833108D01831416F3100319110B1831414165B68007025108A
:2004DC0050C00091F4C3C0C02014036F3110410422C082312100319110B1633931104104A1
:2004FC0082C082312100319110B163393110A2C082312100319110B150101531051405925B
:20051C0000703F6452C0311031066131C102426412C13110213971065131E10242640070C7
:20053C008A65996588C0208250398039001E9F4041C001301814181A89C0308260398039AC
:20055C00001EA94041C001301914191A3C64369110B1349110B154B0007154A064B0F0804B
:20057C000022AF404012B09032B053825339533985643F6411C122C1426470C1C26811C1D9
:20059C00C2C0426470C1C76850C00091277298921516141642105310F0C121823131313929
:2005BC008139313151B070B272652772999270B262107310F0C331822131213981391B1037
:2005DC007265E2C08231608280318039020061B00071329110B151A061B0277230C2F36897
:2005FC0000008012B09032B0007050C000912772999262107310F0C3318221312139813995
:20061C0051B070B27E652772989270B242105310F0C1218231313139813931311A107E65D5
:20063C0051A061B02772B0C018693F6401C122C1426401C1C2C04264151A3C64359110B1E4
:20065C0053828564C012B09032B000703F6472C281C0426422C111C1426402C011C1426409
:20067C0062C031C3426462C311C1426402C311C14264538253398564E2C34764112240417A
:20069C0042C281C8426452C211C1426472C2E1CE426402C281C8426402C201C84264B0C0E0
:2006BC00546900703F6442C201C8426452C211C0426472C2E1C0426402C001C1426462C089
:2006DC0001C3426422C101C1426462C301C1426402C301C1426453828564007061B00071DF
:2006FC001214231C7A4D339110B10070329110B17269007061B000711318321C8649329161
:20071C0010B10070339110B17E690070C2C047641510C2C01216476441311514C0C080313D
:20073C0005145410A07804040070E6C0863101CC161467106182F0C3010417140070067316
:20075C0005720B720E7250B00071818060B050A092804122C3458080F1C1100430160111FC
:20077C000114016CD661D761D861D961DA61DB61DC61DE61E061E261E461366339639180F7
:20079C00F2C0210421318280422A1214321601112114016CEE610B62F4613963EE610B621B
:2007BC00F4613963E661E661E661E661E661E6619464E661F964E6612A65E6615665E661C7
:2007DC004667E6611012B0900E720673057210123090A761F0CF3C67D4C103C0C0C3546458
:2007FC0040785091507810926078209270783092807840929078609230789091108240390E
:20081C00F00601101031101400924267E661BCA0E2A054A0F08050221546408000222B476B
:20083C000D6240A02D828D318D391082F1C0100409101A824A391A041082803910040E10F0
:20085C00AB10BC10C21063642972E0CF3C6713B003B0C86653B050B054B064B013B0A566E2
:20087C001082E0223846AE660071418001222B47F08010224B46F022184764B031223842EA
:20089C0063B0CE661082E02238467066386264B06F818F318F3DD0DFFF923C6700714180CE
:2008BC0001222B4764B0F0805022654263B01182C1226046CE6605671182D1225246706627
:2008DC005262618172818131813D8231823DC0EFF19202933C670B62B081C091D3819782CB
:2008FC0090A2D3187F4EF30B1316E31CA44AC391E3813B149062BA1C8B46231E8B4AE31C29
:20091C008B4E90B207228B4290A21B1A9662E31CA44AC391E3813B18AB1CA04E9B1CA24AFB
:20093C00BC1CA442B2101082D0229D42F0801022A4466364A566A462AB1094629B10946202
:20095C0000703082F1C0100463B00071A86ABC10E0B00070B281C291D281018212185181DA
:20097C00121841828131813D121CBF4AE2B032B0B0DFF2923C67F1C72114C34E12C86291D2
:20099C00729131B0E1B0007008C006C000C86091709100700182B081C091D081101851814E
:2009BC0010180614E18042828231823D201CE44AE2B02122E84632B00510A0DFF5923C6735
:2009DC002122E842E2A032B031824139F0C00104011EF642181610C01030081C04476010D4
:2009FC00103C0610F1C76114FA4E16C8669171818131813D161C014B769131B006C008C0D9
:200A1C00007061818131813D408280390118F11C174B0114B080C0221747BCB033B090EFA2
:200A3C00F1920F933C67007003A063B064B0EFB056650071408000222B4764B02A65EFA047
:200A5C000071408000222B4764B003B03862018262818231823D80EFF19202933C6703A0AF
:200A7C005665E661A2806364E66150B00071E661E092D08200223D47C0B20070A080F022F2
:200A9C00594330B002C1623101C0A080001E5243F0225343A0F56031603953632010101A5D
:200ABC00136F236E11161216546B0070D55E0000359D000000000000000000000000000084
:200ADC004D900100459401008119010009940100099B0100039B01005994010000000000D7
:200AFC005F9A0100D521010035340100F58B010075AD0000FB950100A9DE0000B1460000CD
:200B1C00257E0100D54F01000000000051410100679A010021BC0000F6C00800000041007F
:200B3C00000001C3100000024210000003C414000004C518000005C618000006C71C0000E9
:200B5C0007C920000008CB24000009CD2C00000AD33800000BDA5000000C18B800000D3F1E
:200B7C00A600000E3FA700007FFFFF3F00F6C004000000C312000001C416000002C51800BA
:200B9C000003C61C0000044418000005C820000006C924000007CB2A000008CE3200000907
:200BBC00D24000000AD85800000BE59000000C2BBC00000E3FAB00007FFFFF3F00050000A1
:200BDC000F440100218501002DC20000479A01007F9B0100ED020100BD7C0100C79A010086
:140BFC00D39A0100CD9A0100340B0000890B0000890B0000A8
:201000003C000000000000000000000034100000000000000000000001000000000000004F
:1C10200000000000000000000000000001000000000000000800000000000000AB
:20103C003400000000000000000000006810000000000000000000000100000000000000E7
:14105C00010000000000000000000000080000000000000077
:2010700030000000000000000000000098100000040000000000000001000000FFFFFFFF87
:10109000FF00000001000000080000000000000048
:2010A0002C0000000000000000000000C4100000040000000000000001000000FFFFFFFF2F
:0C10C000FFFFFFFF080000000000000020
:2010CC0038140000E410000095A1011091A70110A1C2011009B2011041B80110A5BC011078
:0810EC0085BC01102E0000007C
:2010F400280000000000000000000000141100000000000000000000FFFFFFFF0000000093
:081114000800000000000000CB
:20111C00341400003011000065C2011069C101101BC2011091BA011005BC0110E5BB0110EA
:04113C00300000007F
:20114000341400005411000071C20110A5B6011099BF011045B60110B5BA011025BC01104B
:04116000310000005A
:201164002400000000000000000000008011000000000000000000000000000008000000AE
:041184000000000067
:20118800240000000000000000000000A41100000000000000000000000000000800000066
:0411A8000000000043
:2011AC00240000000000000000000000C8110000000000000100000000000000080000001D
:0411CC00000000001F
:2011D00000000000F8190020040000000000000000000000200000007010000030000000FA
:2011F0001C110000001A00200400000000000000000000000C00000030130000180000000D
:2012100040110000081A002004000000000000000000000024000000481300001800000090
:2012300000000000101A002004000000000000000000000010000000A01000002C00000064
:20125000CC100000181A002004000000000000000000000020000000641100002400000093
:20127000FFFFFFFF201A00200400000000000000000000002800000088110000240000001F
:20129000FFFFFFFF281A0020040000000000000000000000580000003C1000003400000004
:2012B000FFFFFFFF301A002004000000000000000000000010000000601300001800000019
:2012D000FFFFFFFF381A00200400000000000000000000001C000000AC110000240000008F
:2012F000FFFFFFFF401A002004000000000000000000000038000000F41000002800000000
:20131000FFFFFFFF481A002004000000000000000000000054000000001000003C0000009B
:1813300018000000000000000000000040130000080000000000000032
:1813480018000000000000000000000058130000080000000000000002
:18136000180000000000000000000000701300000800000000000000D2
:0813780002000000B0A8010012
:041384000100000064
:0413880000000E0053
:04138C0000000F004E
:041390003200000027
:041394000100000054
:041398000819002010
:04139C00000200004B
:0413A000F19A0100BD
:0413A400FDC901106E
:0413A8000000000041
:0413AC00000000003D
:0413B0000800000031
:0413B4000000220013
:0413B8008415002078
:0413BC00010000002C
:0413C00020190020D0
:0413C400080000001D
:0413C8000000000021
:0413CC00000000001D
:0413D0000000000019
:0413D400080000000D
:0413D8000000000011
:0413DC00000000000D
:0413E0000100000008
:0413E40014170020BA
:0413E80006000000FB
:0413EC0001000000FC
:0413F0006414002061
:0413F40000000000F5
:0413F80000000000F1
:0413FC0000020000EB
:0414000000000000E8
:021406002900BB
:021408000100E1
:02140A002500BB
:02140C003000AE
:02140E003100AB
:021410002E00AC
:021412000100D7
:0114140001D6
:081418000300000060A80100C0
:081420000000000000000000C4
:0414280000000100BF
:04142C0000000300B9
:0414300083C4011060
:041434003C14000064
:041438003C14000060
:04143C0000000000AC
:041440009000000018
:041444009000000014
:0414480000000000A0
:04144C002019002043
:0414500043960100BE
:041454002000000074
:04145800ECA70100FC
:04145C0030A70100B4
:0414600009C30110AB
:04146400F380010010
:041468001F850100DB
:04146C0095C801100E
:0414700097C8011008
:041474000000000074
:04147800EBA70100DD
:04147C00D0A50100F6
:04148000E8A50100DA
:04148400B8A5010006
:0214880008005A
:02148A00090057
:02148C0001005D
:02148E0000005C
:01149000015A
:041494000000000054
:041498000000000050
:04149C00000000004C
:0414A0000000000048
:0414A400F39B0100B5
:0414A800116B0100C3
:0414AC00E9830100CF
:0414B00005710100C1
:0414B40003720100BE
:0414B8009D60010032
:0414BC00F9FD000036
:0414C0005998010036
:0414C400393F0100AB
:0414C8000DC801103A
:0414CC001DC8011026
:0414D0000800000010
:0414D40024000000F0
:0414D80018000000F8
:0414DC0028000000E4
:0414E00020000000E8
:0414E4003C000000C8
:0414E8000C000000F4
:0414EC0034000000C8
:2014F000D7492DE9F04F022001F11C02ADF19C0D0023401E42F80C3F1F469760F8D18A46F3
:201510003D460AF14000062701467F1E21F80C5BFBD10821CC4CCB4FCC4B0180241D876085
:201530000AF11C0624F003042246181BCAF820002346CAF818401946CAF81C4024189442D4
:2015500000F2A5838210E82401EB820242F8045C20F003001C60EC38C1F8E800E8312846DE
:20157000CAF810101DF07EFECAF81400B8493068B84FCAF810000A6807F10C00026049681F
:201590004160CF498146082216F0DEFE28B9CD4801684A46116040685060CB48CC4FCD4BB1
:2015B000C0F8B470C949C0F8BC302E46C0F8B010C94AC0F8B86000F1B00BC0F8C860C74F18
:2015D000C0F8C0203346D0F8B010C0F8C470C0F8CC3009B1304688471DF0BCFEDFF804839E
:2015F00031463C2208F118000FF084FE02270820ADF838001026ADF83A70DAF824100F9616
:201610000EA8884700280CBF109F2F1C08200126ADF84400DAF82410ADF8466011A8884737
:201630008C499DF84800139E0A46087056606FB1D02139707D70B8702E46FD7033463D71E2
:201650003946BE600220FB6015F062F8A449182001221DF0BDFD484617F0FCFF18201EF01C
:201670009DF87C490F46487078680121C8F80800204617F053FCE720092117F04FFC0EF0EC
:2016900041F808F1540039468860CA4CC4F828B0D8F80860A6602946F52017F03FFCF82087
:2016B000294617F03BFCC44E0E270D20707006F10C01B77006F118000DF02CFDB0607078C1
:2016D00017F090FE00280CBF08272F1CB07817F089FE08B947F01007B849B06818F0D4F846
:2016F000B749C82206F1240013F0BCFEB5487060102F10D1A06A70B1C26862B1FF208DF81F
:2017100008004FF6FF77ADF80A7002AEADF80C7096E803009047A3A017F054FFDFF8A89200
:2017300009F1140009F108010DF0F4FCC9F80400284618F0C7F82F46A9F10206834606F8C3
:20175000025F02207070384618F05CF90146D9F804005A46C9B215F013F87F1C022FEEDB5F
:201770009A4909F120004FF4FA7213F07BFE984E06F11000311D0DF0CDFC412130605520C9
:2017900017F0C0FBE0200C2117F0C8FB4F20032117F0C4FB5720052117F0C0FB4E20042135
:2017B00017F0BCFB5920032117F0B8FBCA4904F13000642213F056FEC849E0604FF47A726F
:2017D00004F1E40013F04EFEC5492062642204F1540013F047FECB4920610A2204F584707C
:2017F00013F040FE6062012108F1040017F080FD4FF00609C84EB8F804004108C0F085801D
:2018100098F80170A06A002F79D129460028179133D00769002F30D08DF81090ADF81290E7
:2018300017A8ADF8145004AB009093E803002A460423B84780B9179819301790A06A1EE09D
:201850006012002041F90100E7300020004B0020C8FF0100381900208DF810902846A36A30
:20187000ADF8129004AA18905F69ADF8145092E8030018AB0422B847A06A2946179100283C
:2018900032D0076987B38DF818900120ADF81A001AABADF81C5006AA009392E803000E23B8
:2018B0002A46B84700BB17980EF02EFB13F002FDC1B21AA810F0E4FB012088F800001EE063
:2018D00088A80100F0120050080200205D5E0100856201008DF00000596701007DC9000023
:2018F00011E00000C4110020179888F800500EF00BFB012017F0DAFC012017F0A7FCB048AE
:20191000012117F0EAFC40468088810807D307F087FDAB48022117F0E0FC40468088C108EC
:2019300060D3A84832220C3830F80C1F4FF6FF738B420BD041894B0808D301F44073B3F5E2
:20195000407F03D14FF6FF4319404181521EEBD14FF440704FF4807116F078F800283BD145
:20197000984F32200C3F37F80C2F4FF6FF71914230D079894B082DD311F4407F2AD10220AB
:201990008DF88C00ADF8842021A809F0F1FF18BB78894FF6FF5140F4807078810840788164
:2019B0001AE0C046544920436F6C6C6563746F7200C046C0D00D0020B0140020396801006A
:2019D000AD9001001592010040150020D1F8000084180020401EC6D17948042117F07DFCBC
:2019F00040468088000925D37548082117F075FC0A208DF89800B8F85000014618F0DFF87D
:201A10008DF89900084618F080F88DF89A0026A812F05CFAA94817F085FE012802D1A7481F
:201A300018F0CBF8206942F2107118F018F8A34818F0C1F87088410805D3A148012117F09E
:201A50004CFC30464088810805D39D48022117F044FC3046408896F8233001097DD3B768A8
:201A70001846401E70D0401E6CD0401E4CD0401E6DD191490DF176000E220DF019FA38469E
:201A900080BB2846B0608B498DF883500DF18203E12218201DF09CFB50200DF1760117F003
:201AB000D1FD84490DF17A031820E2221DF090FB1EA9532017F0C6FDF06820B1016811B1D4
:201AD0000DF17600884796F82200022814BF0320042017F0EBFB3AE0258E0100ED8D010089
:201AF000D18D0100076850B1082109900523ADF8201008A8DAF82410ADF82230884738464E
:201B1000BEE7C046A79A0100327FF08B02E0401C80B2F0833B4608E0D40A0020997C8A4271
:201B300002D1D989884203D01B68002BF6D129468142ECD0318C532017F0E4F928460FF0DF
:201B5000B7FD04E0284600E0012010F091FF5C48082117F0C2FB30464088C0080AD3412009
:201B7000294617F0C3F9484617F0A0FB5448042117F0B3FBA08840083ED3A07800090ED3FA
:201B900011F03AF94FF6FF71ADF88E00814206D002208DF896000DF18E0014F049FDA07855
:201BB000400924D3207878B90120207039A017F009FD4120012117F099F905200DE0C04641
:201BD000C8110020780B0020257036A017F0FAFC4120294617F08AF9484617F067FB39481F
:201BF00017F0A0FD012802D1364817F0E6FF3648A570012117F071FBB8F8040000287FF454
:201C1000FAAD08200A27ADF828004FF0FF33ADF82A70DAF824100B930AA8884700287FF477
:201C3000EAAD08200727ADF85000DAF82410ADF8527014A888470028169F9DF856209DF83D
:201C5000540019977FF4D7AD2049097891420ED11E494978814207D01C4989684B6C33B12A
:201C700029463A46984702E0384601F0CDFA199800283FF4C0AD0820ADF8300003230D972E
:201C9000DAF82410ADF832300CA88847B3E542F8045B54E45065726D69744A6F696E2D4FBE
:201CB0004E2000C05065726D69744A6F696E2D4F464600C0894F010098A10100240E0020B8
:201CD000D60A0020900E0020D40D0020381900202DE9F04FB148B24C00784FF0000AADF119
:201CF0002C0D18B9207808B117F012FF81202070AC4C57462078A781AB49A07060690F708F
:201D1000427A017A0A9702F0070301EB03218DB251092CBF6FF001016FF00301477A6D1841
:201D3000ADB237F07F0740F0C082A0490988A942C0F2BB820A3029460EF09EFBA289216ACB
:201D500004F1180089180831052217F04FFA04F11A0B267FA089A77EE17E9BF80130ED1EDA
:201D7000ADB2401D267182B2C3F3011907EB01208A4FA28139786081002908BFB9F1020FB0
:201D900000F09382B9F1020F00F38F82DFF8208269B110F0070F00F0888241B141460978D2
:201DB000862904D100F00701022940F07E82011301F00201022944DA617800F007000228F1
:201DD00038D1002936D1216A09A889180122083117F00CFAA089C54E401CA081306880475C
:201DF0008346DFF80C93C34D98F80000D9F800702968862819D11FB917F08AFE4846076826
:201E10009DF92400514617F0E0FE9DF92430787750462968B8775846FB77884761892079EB
:201E300001F010010FF0DCFF01E05846884716F0FFFF3EE298F80000862803D1504612F09A
:201E5000D7FF6178A7788FB181B9012F00F02D826089022F03D110F0070F40F02682032F4D
:201E700005D100F00701032901D01EE2608901094FEAE00C08D310F4405F00F01682A74979
:201E90000F78002F00F01182011301F00201022902DA810A80F009829BF80110C1F3810883
:201EB0008E11B8F1010F00F00082012E00F0FD819B49B9F1020F09D08A5D11F8081089188A
:201ED000CFB2AEB1C10913D3BF1E0BE072184144127909798918CFB2C10905D258EA060370
:201EF00006D0BF1CFFB203E058EA060308BF0227C0F30020391A60718D42C0F2D681ED1B7B
:201F10005FEA5C010544A8B2208128BF4FF0250A5044743080B216F08BFC2061002800F0E2
:201F3000C4810A9D742229460FF0E4F9E570618965781DB91C4A01F0200010701A4A60799E
:201F5000DFF8E0A11578DDB1D0B901F00701032904D001290AD1504605783DB114F0C6FFAD
:201F700010B916F0D9FE08B10420E0700B48057815B1B9F1020F01DA16F09EF961896079F2
:201F9000226902F1740353609365258915812389A2F85C300B091FD30CE0C046E812002069
:201FB000E0300020E02E0020E230002092190020E4300020C0F1030081B2A2F85C10906D98
:201FD0000A46C44917F012F92269B2F85C10906D4018618990656079E57891819BF80110C1
:201FF000C1F30113BB490978002801F0780141EA030145EA010515744FF0FF0393730CBFF3
:2020100021790A9982F8306082F83A8082F84910A189002FA1EB000188B2A08100F03D8173
:20203000216AE7803A4609186846083117F0DEF8E188A0894018A08121699BF80120087C6C
:202050006E46C2F30118921000F0400912F0030F02F003073ED00A9BB8F1020F01D1C009FB
:202070000BD29DF801209DF8000000EB0220A1F844000DF10206A1F84200944DB1F844008F
:20209000EA89824203D04FF6FF7282421FD1032F10D07278307800EB022082B24A86A989D5
:2020B000B61C0120914211D04FF6FF71914218BF181C0BE020693146323017F044FD2069B8
:2020D000ED1C2946323016F0C1FE08360346002B00F0E6809BF8010085112AD02069B8F1F3
:2020F000020F09D0017CC90909D30FE064120020B41600206812002059EA070706D17278A0
:202110003178B61C01EB0221A0F84210032D0BD07178327802EB012202850AE0BC2B002015
:2021300080A80100062C002020693146283017F00AFD608900F00700032804D0012813D1C2
:202150005046007880B1206912F02CFA60B90A989BF801709BF800602569E070C7F3011123
:2021700006F07800084328745B48007810B1B8F1020F08DA5948007828B1607918B920794D
:20219000E17810F001FF2069E28881890909C0F08480806D694617F029F82169E288886D66
:2021B00080188865B1F85C00276A8018A1F85C00A0890122391808310DF1250017F016F859
:2021D000A089401CA08121699DF82560896D0E7021699DF825509DF82570886D401C886535
:2021F000B1F85C00401CA1F85C0005F0070081F82400C7F3C10281F8252091F824000028D0
:202210004ED03348825C121DE2802089824247DCA089216A0918083105A816F0E7FFE28805
:20223000A0899DF814709DF817309DF816609DF815508018A081216907EB0360174600EB8B
:202250000640042F00EB052088610CDD206906A9521F1C3016F0CAFFE28821690DEB020061
:20227000C07C81F82600886D05A916F0BFFF2169E288886D80188865B1F85C008018A1F868
:202290005C002089E288801A401E82B22281B1F85C000A818018A1F85C0002F0B3F806E050
:2022B00017F046FB10F066F801E017F063F90C4E0C4D30688047226A0A9913681971116865
:2022D0002162296888470BB0BDE8F08FFC130020B8A80100FA2E0020E8120020E230002008
:2022F00064120020681200202DE9FE4FDD4981460122A1F130000260D8480768002FFCD07D
:20231000D74AE34EC027D848D84B17603268920808D2324652F8042C03F14104120C42F031
:20233000F00222704FF0000A8346C1F800A0DFF88CC3DBF80810E04F0191880E43D2480ECB
:2023500041D3802018744FF6D802A3F8512018703868C0F30464162CA8BF203C1E460F3E09
:20237000307800F01F001628A8BF2038844223D0624602F1980EE44ACEF800A0251A022D9D
:2023900005DC15F1020FB8BF6FF0010500E002254019156800F01F05844245F4F855A6F87E
:2023B00066504FF001051560E8D110682E4616601068CEF80050106838460068C0F30420BF
:2023D000162808DB06E0A7F1D0000068C0F30460162800DB203800EB2170401C162805DA99
:2023F00010F10A0FB8BF6FF0090000E01520D54E00F01F0040F4F850A3F8590030688008FD
:202410003ABFD148C0F800A041F040616246C80E8E0E80F0010000F00100106086F001000D
:2024300000F001009060019810F050FC0146182014F00AFCA7F13806CD4C30683568A4F184
:202450000408C0F3870105F0030041EA0021D8F80400C04D446840F2FF32534688B22C21D1
:20247000009028464038A047F06AC0F30D011C2014F0EAFBB549706A014000F07C400143A6
:20249000142014F0E1FB316A01F47C000904090C0143102014F0D8FB7D4AB06A1268C0F391
:2024B0000351C0F30344520813D2DBF80020130511EB237103D41029A8BF0F2100E05146C6
:2024D000120414EB227403D4102CA8BF0F2400E0544644EA011400F47F4200F0FF01B9F188
:2024F000220F42EA044241EA020124BF00F0804001430C2014F0A8FB954CB9F1220F32BFA4
:2025100001202068C0F30070B9F1220F4FEA400040F0200085F8090126BF2068C0F34070E4
:2025300001208D4EB9F1200F40F0100085F8090138BF514606D33168C80C00F44070C1F3C3
:2025500084510143282014F07FFBB9F1200F26BF3068C0F301505046B9F1220F4FEA400048
:2025700040F0600085F80C0126BF2068C0F3C0605046B9F1220F4FEAC00040F0800085F85A
:20259000010126BF2068C0F345505046B9F1200F4FEA800040F47C40A5F89C0138BF6F4973
:2025B0000AD3306801038A15920501F47C1100F00F00114341EA0031082014F045FBCC3FB4
:2025D0004FF480002860664AB86D40F21E216FF31F40814216D93868030E03F00F0113F030
:2025F0000F0FC0F3034018BF491E072805D006280EBF0720801C00F00F0041EA0011A2F1E9
:2026100008000170DDF804C0CCF381477F1E02D07F1E31D02CE02068810C29D24FF48041E4
:202630002960D2F80210430AC0F3033703F0800321F08F010B4347EA0301C2F80210D2F8BB
:202650000130060A66F30303C2F80130116800F0E70721F0E70147EA01000CE09402224376
:2026700000600C4040100940AC3F0050156208404FF000402A46106005480068C0F3C0077D
:202690000FB94020A8624FF40070286402E0C046B03F005020684027C0F3C14040F030008F
:2026B00085F8C800CCF3815080B3401E08D0FFE7401E23D0022122E0881300500000204322
:2026D000012015F029F906460420314610F01AFE042015F021F98642FAD12248066826F0DF
:2026F0007F4014F05FFED8F81400036807214FF06022300E98474FF4806028600321042062
:2027100010F000FE09E0C0462C2009400420012110F0F8FD144814F045FE203C206800F075
:202730003F0085F8CB0FD8F80030124ED96830680220884710480D4C076001212160BDE869
:20275000FE8FC0460000094094042A43FCFCFC008C13005040A00C409813005000803F407F
:202770000A600840A83F0050BD37860094046042A40100102C20094000600C402DE9F84365
:20279000DFF808830F460446F80B80F08381DFF8F892B80F80F03581BD4DB80880F02A817E
:2027B000F80A80F00081B80B80F0EE80780B80F0C080380C80F0AF803809C0F0888108203D
:2027D00017F07AF8002840F0A180802017F074F8002840F09B8068460CF0E8FC012803D1E6
:2027F0000098002800F0928000240125E0B216F035FE48B1867A3EB1857290F9090005FA82
:2028100000F0C0B214F088FA641C032CEED34C46032020756068783017F0A7F9B0480026D1
:2028300001680660AF4950F8082CB146324640F8089C04F1380017F0A8F9304615F078FF33
:2028500016F0C6FD0146A268E069891A090BC1F1FF3282422CBF08444FF0FF30E06194F835
:2028700020601EB12169B0EBC12F1FD915F0C0FF494600B12946081C14D09B4840F609014E
:20289000018049464180427B65F303024273027B61F303020273416016F02CFF418811F49D
:2028B000406FFBD084F820504946E16113F0C4FC8E484D4649460560022015F0B5FC0220B7
:2028D00014F010FA11200AF091FE207818B96068403017F064F98648007810B90E200AF0E4
:2028F00085FE94F8210020B184F82150052014F0F9F98048B4F98C60A061B4F98E10257578
:202910008E4214BF022007200DF03CFE27F0080710F058FDDBE00835296839B1C86840889E
:202930000028FBD0C86840880128F7D027F40047EEE713F041FF38B12046A4696FF4807182
:2029500000224FF00073A0476D494C46002204F1380017F01AF90220E668207516F038FDBB
:20297000D4F81C21636804F58E719A4214BF0122002226B1801B01EB8206030BB360002060
:2029900027F48057E060C3E74046066846B1B06830B13069B6F93410B46800222023A04773
:2029B00027F4005793E017F0EAF84C460546206F0646C8B1D4F88000B0B9D4F8840098B9B2
:2029D00004204D4B20756068A36110B1783017F0CCF83069606016F0FBFCE0604FF400615C
:2029F00004F1B40017F0E3F8284617F0B7F927F480676CE005F0A8FF286808B927F00207BC
:202A100065E017F0BCF80546042014F085FFC8B1207CB8B148460830006898B1064616F068
:202A3000D7FCE168801BE060000B8842E06002D240184008E06040F6C41181422CBFB0F568
:202A5000967FE160284617F089F913F0B5FE80B1A56920466FF4807100224FF00073A847A7
:202A700026480068002808BF47F0020701D010F0A9FC2046646900214FF080630A46A0471E
:202A900027F0005723E0C04638210020C0210020B021002017F073F841460E689EB1B16A6B
:202AB000890810D2B56AB16AA943B16217F056F9B06850B14DB13069B6F93410B4682A46D5
:202AD0000023A04701E017F049F927F4804727B1404639462C3017F06AF8BDE8F883C04608
:202AF00014100440014201001030002000000460BE19002041BB000081A30000A821002056
:202B1000FDD200002DE9F04FBB4C0546A07AADF1340DC00015F096FA0890B848006880471A
:202B30000B900AA9822004F06DF9BDF82800002834D14FF000084FF6FF76ADF8288024E0DF
:202B5000ADF81460BDF82800ADF81660FF210822ADF8100006A817F03EF8A77A57B14146BA
:202B70000A4608987F1E00EBC200016002F101028680F6D18DF82480D42004A902F05AFAD7
:202B9000BDF82800401CADF82800A088BDF828108842D5DC82200AA902F04CFAB64F0020DD
:202BB000A0464FF6FF79A3463988ADF8280006E0B14FBDF828003988401CADF82800BDF889
:202BD00028008142DCBFAD48016840F34A81AC4800784FF0000A012654460DE0B8F80400EC
:202BF000641CA4B2AAE0BBF80600641CA4B23CE0A348641CA4B20078A04208DC002ED7D1E5
:202C1000BAF1000F2ED1687F0028D1D02AE0BDF828008DF802406946ADF80000D02004F055
:202C3000F1F80028E4D19DF80C30012B08D19DF80B0028B90DF1030016F0CCFA0028B7D1EA
:202C50006F7B002F0CBF0522092256469F42CFD10DF1030005F10E0115F07AFE0028C7D0CF
:202C70004FF0010AB8F806000024A0425CDDBDF82800ADF802406946ADF80000D12004F008
:202C9000C1F80028AFD1BDF804008145ABD0ADF8100004A9D42004F0B5F8002858D106A8D3
:202CB000291D082215F054FE00289CD028886F88ADF81400BAF1000FADF8167022D0287BCF
:202CD00098F80A708DF82400381C08BF00200FD0089902460020083908318B88994507D0CC
:202CF000BDF828609E4203D0521E00F10100F3D187422DDD0899AF6901EBC0000760BDF85A
:202D100028608680D42004A902F094F9BAF1000F0AD0287F9DF80610884205D08DF80600E5
:202D30006946D12002F086F9B8F80600A0427FF43FAFB8F80400DFF84CB10024A04240F3B8
:202D50008C80ADF81040D42004A904F05BF818B14A480168192485E006AB184616F03AFACB
:202D700038B9291D1846082215F0F2FD00283FF435AF6F882888ADF816702E7BADF814001D
:202D900098F80A708DF824603B1C08BF00200FD008991A460020083908318B88994507D090
:202DB000BDF828609E4203D0521E00F10100F3D1874203DC314801681A2453E0089A2E1D05
:202DD000BAF1000F0CBF0021A969C00011501218BDF8280031469080082206A816F006FA9E
:202DF0009BF8007037B1DBF850201AB1BDF8101030469047002605E084190020641200204A
:202E1000761CB6B2B8F80600B04221DDBDF82800ADF802606946ADF80000D12003F0F2FFF5
:202E3000E82803D0BDF804008145E9D1BDF810000023ADF804002F7F8DF8073004A98DF839
:202E50000670D42002F0F6F8D120694602F0F2F8B8F80400B0427FF7C3AE08490968A0426B
:202E7000AAD000240B988847089815F061FD20460DB0BDE8F08FC0468C1900206812002083
:202E90008F190020E81200202DE9F04FCE4C2068416EADF11C0D02A888474FF0000AA1462A
:202EB000CA4DCDF808A068698DF80CA0002839D114F01CFDC8B114F019FD012815D014F088
:202ED00015FD052811D014F011FD0C280DD014F00DFD0D2809D014F009FD0B2805D014F06D
:202EF00005FD0E2801D016F013FE14F0FFFC687000280CBF50460120A870D9F8000000F147
:202F1000200120B916F004FED9F800102031096805F1180088474FF4FA702885AC4FEF6279
:202F300006262E63AB48DFF8B082026898F853405146080100EB41108018877F2FB9437F17
:202F5000491C9C42C9B2F4D102E0417FA14205D1824203D013F0D8FC9E480268A0499F4BF2
:202F70000868D1C883E8D10095F90100012805D00D2803D00E2818BF504600D1052019466F
:202F9000087098F881005169964C51F82010E16116F0AAFA632005A911F0EEFF98F8530095
:202FB00013F03AFA0646A07B012161F30200A07398F8530013F032FF04281ED098F85300C4
:202FD00013F02CFF03280DD0207C40F00F002074E07D6AF30300E075B07B052814BF2420BB
:202FF00029200FE0207C40F00F00207429272775E07D6AF30300E07505E0207C40F00F005C
:20301000207421202075607D6AF38710607598F8530013F003FF042814D0B07A60B99DF8C0
:203030001400617D401E60F305016175A07D20F03F0040F0180010E09DF81410607D61F373
:20305000050004E0607D20F03F0040F002006075A07D20F03F0040F02000A075B189B07B0E
:20307000E3890A27401D484390FBF7F161F3CF03E381B089277C1922800390FBF2F107F0BF
:203090000F002269534F0F23484390FBF3F161F31C2222613968237E0A7F62F302032376E5
:2030B000277E087FC11061F3C307277698F9420010F0F8FDB0F1FF3F04D0010828BF4FF698
:2030D000FF706083308971683768424B4FF47A7B401E414307EB5100B0FBFBF020841868B9
:2030F000806957460078A4F802A001216760627B84F8240061F30302627316F0F5FBD0B971
:20311000B0893949394EBBFBF0F0C0B208709BFBF0F0307098F85300022806D013F07EFE65
:20313000032808D105215C2001E00221A820304A1170304E30706869D9F80060DFF8C0A0BB
:2031500068B3384611F0B0FFE87898F85310884213D12A7998F88110D9F8006068698A4283
:203170000ED102213A468DE80600366D3B46214602AAB047204804601DE0D9F80060686949
:203190007168884701211D48D9F8007001703E68124905F1180322465046B04706E02246E9
:2031B0000E49346805F118035046A04768610C4814490068086098F8530098F88170E87078
:2031D00007B02F71BDE8F08FD4130020BC150020DBCF0000D0130020842B00204C30002054
:2031F000D813002074170020D8180020E53000207B1A0020781A0020C41300207A1A0020B2
:20321000E028002070190020B0B50446BA480768ADF1480D002F00F0A8812078401E112843
:2032300000F2A381DFE810F06A015201380123011B010401F100E300C300B2008D005D0032
:2032500053004200A1012A001C001200F86B002800F08B81684621460CF028FFF96B82E149
:20327000386C002800F081816846002101220EF041F860788DF80000396C74E1F86A002876
:2032900000F07381684600210E220EF033F8A11C684615F01BFFA57BA1890022ADF80A105D
:2032B00005B101228DF80C20F96A5DE1B86B002800F05B816846002102220EF01BF8A5789B
:2032D0008DF8015060788DF80000B96B4BE1786B002800F04A81684621460CF0E7FE796BBB
:2032F00041E1386B08B36846002114220EF002F8A5788DF80150A3680193A289ADF80820B7
:20331000A17B8DF80A1060788DF80000E57B8DF80B50237C8DF80C3094F911208DF80D2075
:2033300061690491396B684688476068002800F01C810146F22008700020487013F0E8F9F3
:2033500013E1B86A002800F010816846002124220DF0D0FF6078A11C8DF800000DF10200A3
:2033700015F0B4FE04F10C0103A815F0AFFE257EE08A04F119018DF818500B22ADF8160036
:203390000DF119000BF094FDB96AECE0786A002800F0EB806846002102220DF0ABFFA5786F
:2033B0008DF8015060788DF80000796ADBE0386A002800F0DA806846002112220DF09AFF7F
:2033D000658862796078ADF8025023798DF80520E11D8DF80000A5798DF804300B220DF17B
:2033F00007008DF806500BF063FD396ABBE0F869002800F0BA806846002101220DF07AFF27
:2034100060788DF80000F969ADE0B86910B1204611F018FAA07820B9A069002800F0A580BE
:2034300003E0A069002800F0A08015F0F1F89CE07869002800F099806846002113220DF0DB
:2034500059FF6D46A01C0168406829600B22686004F10A0102A80BF02BFD796983E0386953
:20347000002800F0828020460AF0D0FE7DE0F86800287AD0684600210E220DF03BFF6078B7
:20349000A11C8DF800000DF1020015F01FFEA089ADF80C00F96866E0B868002865D068460C
:2034B000002114220DF026FFA01C01686D46296040686860A07A0B2204F10B018DF80800DD
:2034D0000DF109000BF0F4FCB9684CE0786800284BD06846002110220DF00CFF60786588AC
:2034F000211D8DF800000B22ADF8025001A80BF0DFFC796837E0C046401900203868A0B3EC
:203510006846002119220DF0F5FEA01C01686D46296040686860A07A410824BF01218DF8E3
:203530000810810824BF01218DF80910C10824BF01218DF80A10010924BF01218DF80B101B
:20355000C10924BF01218DF80C1030F07F001CBF01208DF80D000B220DF10E0004F10B0184
:203570000BF0A6FC39686846884712B0B0BD70472DE9F04F09AFADF13C0D08900A923888B2
:2035900009911E46ADF81800101C08BF002000F08481002700F101094FF0FF3A4FF0010B73
:2035B000B8466CE1252940F063811078521C0A922D2818BFADF8068005D15846551CADF8DB
:2035D000060010780A9530281CBF4246434605D10A9908785A465B46491C0A912A28CDF819
:2035F0000080554616D1306804930A99CDF808A0C01C4B1C20F00300001D306050F8044CDF
:203610000A93002C0878009418D5ADF806B06442009413E044460AE0610001EBC4010918A1
:20363000A1F130040A9908780094491C0A91302801DB3A28F0DBCDF808A004932E282BD146
:203650000A9908782A2801F101010A9111D13068CDF80880C01C20F00300001D306050F8AB
:20367000045C002D48BF454608782B46491C0A9111E0454643460AE0690001EBC5010918FF
:20369000A1F130050A9908782B46491C0A91302801DB3A28F0DB02930AB1224604926C287C
:2036B00004D04C2818BFADF8048005D10A990878ADF804B0491C0A910BA9CDF80C800FABA1
:2036D00007916428059300F08B80692800F08880BDF818C0752872D078286ED06F286AD07F
:2036F000702850D063283DD073281ED009980A990128A1F101010A9115D96B490C68B5F189
:20371000FF3F03D0A84288BF6D1C00D8099D029508A80AA932466B46A0473F180A990398B1
:2037300001F1010974E040462AE030680A99C01C20F00300001D306050F8040CBCF1000FAE
:2037500001F10109014608B955A00146079115F007FF0390B5F1FF3F5BD0A842C4BF281C23
:20377000039056E03068C01C20F00300001D306010F8040C5D468DF82C000A9903955846F7
:2037900001F1010945E0082035680490E81C20F00300001D306050F8041C082210230FA85F
:2037B0000EF036FC401E0790402101700A99079801F1010929E0082302E0102300E00A236E
:2037D0000A99306801F10109C01C20F00300001D306050F8041CAA42BCBF2A1C049210E06B
:2037F0000A99306801F10109C01C20F00300001D306050F8041CAA42BCBF2A1C04926FF0DC
:2038100009030FA80EF004FC0790059D281A0390009C241ABDF8065000945DB906E008A8A4
:20383000202109AA14F019FA009C7F1C641E0094F5D503980546401E039075B9BDF8060096
:20385000E8B10098401E009019D408A8202109AA14F003FA00987F1CF4E70798411C079105
:20387000017809AA08A814F0F8F903987F1CE1E708A809AA14F0F1F97F1C09F101094A46E9
:203890000A9812F8011C401C00290A907FF48AAE089808B14146017038460FB0BDE8F08FD3
:2038B000286E756C6C2900C0E4A80100BA482DE9F84F0025B94CB749056094F8E20000281B
:2038D00000F06381012800F02F81B54E02283CD0032840F05A8151F8250CD4F8B810002995
:2038F000A0F5C060C4F8D400B8BF49420028B8BF4042814226DA4FF08057D7F8A401456856
:20391000B4F8BC0030214FF47F42082300903046A847D7F8A4014568B4F8C00004214FF4C5
:20393000F802122300903046A847D7F8A401B4F8D070456820214FF440620A2330460097E6
:20395000A847012584F8D8501AE151F8258C15F089FF2F4600B901273946924F386800289E
:20397000FCD0B146012609F10409D9F82CA03E6009B115F07DFFCAF30720C4F8BC0015F06F
:2039900071FFAA4600B9B2463B68002BFCD0D9F800B0BAF1000F3E6001D015F069FFCBF397
:2039B0008440C4F8C00015F05DFFAA4600B9B2463B68002BFCD0D9F81C90BAF1000F3E6046
:2039D00001D015F055FFC9F38120C4F8D000B8F5C061C4F8B81000F09C8094F8D80068B9E1
:2039F000C4F8D410D4F8C000C4F8C800D4F8BC70C4F8C470D4F8D030C4F8CC30D4F8D400FB
:203A1000D4F8BC30002854BF02226FF0010204F1C8010F6800EB40008018421000EB9272E4
:203A300007EBA2000860D4F8C810C4F8C43000291CDD1E293CDDD4F8CC0030B93429B4BF53
:203A500015391E21C4F8C81025E02A29BABFD4F8C8000B381E20C4F8C800D4F8C4003F28D4
:203A7000B4BF401C3F20C4F8C4001FE0D4F8CC00032812D011F10B0FC6BFD4F8C8000B3074
:203A9000301CC4F8C800D4F8C4000028C4BF401E051CC4F8C450032508E011F1150FC6BF01
:203AB000D4F8C8001530301CC4F8C800C4F8CC504FF08057D7F8A401B4F8C43030214FF4B7
:203AD0007F424568364800930823A847D7F8A40104214FF400321123456831480096A84750
:203AF000B4F8C860D7F8A40104214FF4F802122345682B480096A847D7F8A40120214FF43A
:203B100040620A23B4F8CC60456825480096A84701E084F8D85040F2FF50404502D8801C4E
:203B300040452DD208202EE051F8251C1E4F4BF2F5204843060A3868C0F3814001280AD1BF
:203B500014F02CF912F05AFB15F098FE3111C010484306EBE03694F8E50030B91348006879
:203B700020F07F403618760801E084F8E5501048310C0660012741600E4D8760287808B9A1
:203B90000B2000E0052084F8E40003F073F8BDE8F88FC0462D400C402C500C401010002034
:203BB00000A00C4000800C40B43F0050102009403C600C40A5A701002DE9F04F064692F821
:203BD0000880307D09AF8A46ADF11C0D04933528039205D0114606F170000A2215F006FB03
:203BF000DFF8A4C23AF07F0503D16046801D008801E04FF6FF700590F08A800934BF0020EB
:203C100008203076F08AC00834BF102080207076F08A400903D260461430007800E00020E1
:203C3000B076F08A41082CBF20240024000928BF44F010047568307D4FF0000B0AF07F0AA9
:203C50006D1E02280EDB0C2808DC0C2804BF4FF0020B44F4085444F0030404E00D280CBFA8
:203C700002200120044396F88C200AB144F00804E110200900D32AB1DFF8009299F838304B
:203C900013B90AB1DF20F4E0480815D3049A039906F12403304608F055FA051C05D0757092
:203CB000F32014F012FCE8B2E4E0F08AC00828BF44F0100475686D1E336DABB9B36D9BB920
:203CD00099F85110012903D13089B0F5EE7F06DA200904D202290BD144F4005401E044F48E
:203CF00080544FF0010B03E044F408544FF0020B6348007801280CD0624803784BB196F8FB
:203D10006B00042805D124F480544FF0020B44F4005444EA8A34BAF1020FA4B20AD0BAF1DF
:203D3000030F10D1ED1F09F14401284615F00BFF6D1E08E0B9F82A00001205F8010999F8C0
:203D50002A0005F80109BBF1020F0CD0BAF1000F15D0B8F1000F0CD004990598814208D180
:203D700044F040040BE0B8F1000F08D1BAF1000F05D00599081205F8010905F8011944EAAC
:203D90008824B8F1020FA4B209D0B8F1030F0ED10399ED1F284615F0D6FE6D1E07E00399E7
:203DB0000888001205F80109087805F80109B8F1000F05D00498011205F8011905F8010969
:203DD0003878E0B9307D0D2814D068B9306D28B999F81400411C89F814100DE099F83900C7
:203DF000411C89F8391007E099F82200411C89F8221001E015F0A8FD05F8010901E044F437
:203E10008074201205F801092C7070683789401BC1B2756078183081200929D3B06D00B15A
:203E300030621848007810B1307D0D2820D1716A11F1150002D115F06BFE716A886A421C16
:203E50008A62B0623189306A471B0091C91B019088B20290706A96F88C20B16A2B461530E7
:203E700009F018F900281CBF7070051C7FF41BAF0020707007B0BDE8F08FC046842B002037
:203E9000DD300020E8120020A42B0020AE482DE9F04F20300068ADF1240D11F037FF08B11A
:203EB00014F096FBA148DFF88CA2DFF88CB2A34D0068A34E089014F0D9F814F0B9FBF4698F
:203ED000B769B4F57A7F13D0C01B4FF47A720023A4FB000101F0FCFE80464FF47A7200235D
:203EF00015F0A8F92246002301F0F2FE381801E0A0EB0708B0618C488B49006820F00200A2
:203F1000086068688047DBF80010DBF8042044460919B1F57A7F0DD34FF47A73B1FBF3F3CB
:203F3000D218CBF804204FF47A731F46B1FBF7F25A43891ACBF80010A968884768688047EC
:203F5000DAF804100919CAF80410A9688847DAF8000000285FD007464FF00009686880473E
:203F70004FF000081FFAA4F3079083B95FFA94F36BB93979E0B2884204DD79682046884263
:203F900009D20AE03879E1B2401A387108E079682046884201D3414601E07968091A7960F3
:203FB000B88878B9FB8853B9FB6843B13B8933B1B87A19460AF07CF8F8687860B88808B9BA
:203FD000FB880BB13B896BB9B9F1000F04BF3868CAF8000003D03868C9F800003868B846FA
:203FF000074601E0B9463F68A96807988847B8F1000F0ED0B8F8043043B9B8F806302BB91E
:2040100098F80A00B8F808100AF052F8404614F08FFC002FA2D144484349006840F0020081
:204030000860F06828B3804723E014F8060C3169A4F10C07032819D0F16A9DF81600097810
:20405000884210D114F8080C13F0B4FAB979012903D0022908BFA07000E0207000202146AC
:204070000FF0F0FB05E014F0B3FA02E009B12046884708200727ADF81000696AADF81270DA
:2040900004A88847069C0028CFD0294800680088C8B1686880472649096800220C880A809B
:2040B000A9688847089A00202146307090470446FF203070686880471D4909680A88144310
:2040D0000C80A968884713F0D1FF0746B7F1FF3F1CD007B91B4F306AB84238BF071C6868CA
:2040F00080471C230446726AADF802300820ADF80000696A019268468847B16A3846491CFF
:20411000B16211F063FEA9682046884708200A27ADF808004FF0FF34ADF80A70696A0394D3
:2041300002A88847C7E6C04610E000E0C0A80100C830002094300020C8190020601200207B
:20415000541600208EC2F5285C160020F0B504460846ADF16C0D401E70D0401E0DD0801EFB
:2041700000F00981401E00F0EF80401E00F0E180401E00F0AD80002042E142F2010007A9A6
:2041900010F0BCF942F20B0008A910F0B7F942F206000DF1650110F0B1F942F207000DF139
:2041B000660110F0ABF942F2050019A910F0A6F904A810F04FF906460DF1670142F2090067
:2041D00010F09CF99DF86700002808BF002503D0022013F01DFB0546204607A9042215F08E
:2041F00005F8241D08A90222204614F0FFFFA71C9DF864009DF865309DF866109DF8674007
:2042100007F8010B9DF8672007F8013B2B4607F8011B610706F0070444EA916005F003041C
:2042300004AD40EA8410314607F8010B012400953846019406F023FB0A309AE042F20600AE
:204250000DF1650110F05AF942F207000DF1660110F054F942F2040019A910F04FF904A8BC
:2042700010F0F8F805460DF1670142F2080010F045F99DF86700002808BF002303D0012011
:2042900013F0C6FA03469DF864009DF8657004F8010B9DF8666004F8017B9DF867209DF813
:2042B0006770790704F8016B03F0030705F0070646EA916004AE40EA8710294604F8010B25
:2042D000002700962046019706F0D9FA001D50E042F2150011A910F011F913AF42F21600E4
:2042F000394610F00BF915AD42F21700294610F005F917AE42F21800314610F0FFF82046CC
:2043100011A9082214F072FF083408222046394614F06CFF04F1080708223846294614F05B
:2043300065FF082207F10800314614F05FFF202066E042F214000DF1220110F0DFF8BDF88B
:20435000221002200A1258E009A80021202215F042FC42F2130009A910F0D0F809A815F0D7
:204370003CFC024609A9204614F040FF09A815F034FC80B244E042F20E0002A910F0BEF873
:204390000DF10A0142F20F0010F0B8F80DF10B0142F20A0010F0B2F803A942F2100010F02F
:2043B000ADF80DF10D0142F2110010F0A7F80DF10E0142F2120010F0A1F8BDF808009DF81A
:2043D0000B209DF80C709DF80D609DF80E509DF80A1004F8010B02F00102001204F8010BD6
:2043F00007F0010042EA400206F0010042EA800205F0070042EA4012042004F8011B22705A
:204410001BB0F0BD2DE9F04FA34DAA89296A28698918806D2A89ADF11C0D083114F0E6FE4F
:204430002989A8892A69401883B2906D40189065296AAB810DF116000122C918083114F00B
:20445000D5FEA889296A0422401C80B20918A8810831684614F0CAFEA8890421001DA88168
:20447000684613F092F906462C69009014F01CFCE0632C69304614F0EBF9A4F84000EA2047
:2044900014F023F84FF0020B7C482C6980F800B0217CE878084320749DF91600002115F072
:2044B00094FB84F846009DF91600218984F8480004F17400A065B4F85C00401A61680026C2
:2044D000401801466060A08984F84760820A18D2020924D310F0070F07D000F0070003289A
:2044F00012BF081C6068401C15E06168C87800F00702401000F0380000EB42004018001D82
:2045100009E020460DF0A4FC2C69606E10B1B4F8680080B160686061A089000913D294F80A
:204530006000E8B1204610F00AFA2C69E06CB8B1B4F85000A0B905F1100015F068FA2E616D
:204550000DF018FF96E0204603F062FF60702C696778A06960651FB1F22013F0B6FF2C69C6
:204570004E4F387800287FD0A189DFF814A101F00702022A57D16B78002B54D16378002B2A
:2045900051D12969B0460DF10E008DF81780283115F0D9FA296901A80A22283114F026FE20
:2045B00054462E6920887B6A401C2080706E04210DF11702984705F1100930B9314800685F
:2045D00018B19DF8171080F86810296991F83000022810D12C4ED9F800005A4606F12001FD
:2045F000283013F0B1FE28B931460DF10E00163115F0A9FA296925480078862808D1608868
:20461000401C60808989287901F010010DF0E8FB387818B1B96C09B128698847484615F06E
:20463000F6F9464623E01A4A1378BBB1C1F30131022913D16078002882D19DF81600154940
:20465000534608709888401C9880E87804F11C0204F1280111F002F82C69387820B1B96CDE
:2046700011B1204688472C69204605F095F82E6114F0DEFB07B0BDE8F08FC046E030002039
:20469000AC170020B4160020842B0020E4300020E2300020E6300020E02E0020E81200208A
:2046B0002DE9FE4F05469A4693468846009515F066FA97490CAF0C680290AC4208BF4C68B1
:2046D000944D6FF00100019034B104F19C0014F0D1FF002840F00A8113F094FD061C00F025
:2046F0001181DDF8009009F1780015F03EFAC6F80C80B5F98C009BF80430401C86F8363079
:204710006FF31F30A5F88C00C6F808A0B5F88C00C6F81090804BB08697E80006002106F114
:204730002002202703EA090907EA0A0A06F1180383E800060B4686F83730184682E8030078
:2047500033631A46F262DBF8003003B1336398F80C0000F00F00022804BFD8F80800F06200
:2047700040464368002B18BF002F40F0BB8000886FF30900B0F5305F18BF022006D196F8D7
:20479000370040F0100086F83700082006F1180191E8800106F1180342EA080240EA070131
:2047B00083E806000098D5F84411884207D195F85001410824BF00F0FE0085F85001002C2A
:2047D0006ED0A34605F1700100980C68894612F019FEB24600275FEA00080FD1D9F8002006
:2047F0002AB1D5F88010304609F0BAFC18B9B8F1000F03D105E00127002432E0444600E042
:20481000444624BB584631460EF092FA041C02D0A2451AD12CBBDAF80C10D9F80440087B4F
:2048300000F00F0002281CD1087BC011400818D2002C4ED1D5F8800098B1D5F88010304618
:204850003A4609F08DFC60B943E0042709E0D4F8008030462146424609F082FC0028CFD007
:204870000227012F04D105F17000514613F01CFE022F0AD1226805F170001AB9514613F077
:2048900002FE02E0514613F0EDFD042F04D196F83610204614F0F9F837F0040001D005E08A
:2048B000002705F17000314613F0EDFD17F1030F0FD0B6F9340096F83770019047F080009E
:2048D00086F837000098002180F8C01014F0DAFD18E0B5F98C0000F6FF706FF31F30A5F852
:2048F0008C0006E07F1E1846FFB23AE76FF00200019095F8500140F0040085F850010098FF
:20491000C5F84401029815F029FA0198BDE8FE8F5422002038210020FFEFFF9F9B482DE964
:20493000F84F0C4601210170DFF834A2DFF838B28F4E9749904699462027002217EA0907E1
:2049500010460A7000EA080008BF00286ED14FF0E04702EA080017EA090708BF00283BD1F1
:204970005146DFF808C248884FF4860512EA090705EA080108BF002917D17A4912EA0907A6
:2049900001EA080108BF002967D05D46EC80B9F1000F288105F1300181E8000308BFB8F178
:2049B000806F5AD1022858D10FE05D46EC80B9F1000F288105F1300181E8000308BFB8F513
:2049D000803F4AD1B0F5505F47D1E869674643693868214698473EE05D4696F90000B5F9F3
:2049F0000670401EBC42307017D12A8905F1300003C8002904BFB0F5803FB2F5505F08D02B
:204A1000002904BFB0F1806F022A02D00DF0B2FC03E010F09DF914F0ADFB564A92F9000011
:204A3000401E10706FF00101E98014E0524B1F785D466FF00100A91D088067B14F4800781E
:204A5000832802D04E4981200870296919B1104688472146E8E751464888464F022100251E
:204A700001EA080115EA090508BF002955D043F201415D46814233D0C91C814230D0B5F9DA
:204A9000063096F900109C42A1F10101317004D043F6040181422ED12BE005F1300090E8A1
:204AB00006004FF4820300200B4010EA020408BF002B12D105F1300191E800184FF40034A9
:204AD00010EA0C0004EA0B0108BF002902D10DF051FC10E010F03CF90DE0FDF7F9F80AE0D8
:204AF000687896F90040401C6870601E30700DF041FC13F0FDFE204B00206FF00104AAF8DC
:204B100002001878EC8010B11E48007808B914F031FB97F90000401E387096F9000010B909
:204B300019480021017097F9000080B102214FF0E04001EA080110EA090008BF00290AD06E
:204B500097F90000002806DC14F0E2FF03E0002001460BF0E5FF0D4900200870BDE8F88F83
:204B70008416002000000C8CB8130020D01500206D1900206C190020E8120020E43000204A
:204B9000E0300020E230002062190020791A00206419002030B50546EC6B00215022ADF100
:204BB000540D68460CF0A6FB14F8010B8DF8000021680DF101000160616808344160207875
:204BD000617814F054FFA41CADF80A0041080FD32078617814F04BFFA41CADF80C00207833
:204BF000617814F044FFADF80E00BDF80A00A41C810808D32078617814F039FFADF810008D
:204C1000BDF80A00A41CC1080FD32078617814F02EFFA41CADF812002078617814F027FFA6
:204C3000ADF81400BDF80A00A41C0109C0F0AA802078617814F01BFFA41CADF816002078A6
:204C5000617814F014FFA31CADF818001878597814F00DFF9A1CADF81A001078517814F09D
:204C700006FF931CADF81C001878597814F0FFFE9A1CADF81E001078517814F0F8FE941CD9
:204C9000ADF820002078617814F0F1FEA41CADF822006178207814F0EAFEA31CADF824006F
:204CB0001878597814F0E3FE9A1CADF826001078517814F0DCFE931CADF828001878597811
:204CD00014F0D5FE9A1CADF82A001078517814F0CEFE931CADF82C001878597814F0C7FE9D
:204CF0009A1CADF82E001078517814F0C0FE931CADF830001878597814F0B9FE9C1CADF80B
:204D100032002078617814F0B2FEA41CADF834006178207814F0ABFEA31CADF8360018784B
:204D3000597814F0A4FE9A1CADF838001078517814F09DFE931CADF83A001878597814F076
:204D500096FE9A1CADF83C001078517814F08FFE931CADF83E001878597814F088FE9A1C03
:204D7000ADF840001078517814F081FE931CADF842001878597814F07AFEADF84400BDF859
:204D90000A009C1C40090ED320786178A278E37814F04CFD241D12906178A2782078E3781B
:204DB00014F044FD13901149114C086B401C08632078022807D0032805D0002100B9012175
:204DD00001200BF06DFFBDF80E1004A00A2210F04DFA28460EF066FD15B030BD54656D703A
:204DF00065726174757265203D2000C0C4110020421500202DE9F04FADF1640D18918B4921
:204E1000934604469A4608220DF1570014F0EEF92046694611F0C8FE061C00F0FB80DFF8D5
:204E30001082A41C0225204602A90FF05FFD071C00F0E9800DF139000021162214F0CBFEA4
:204E50009DF809305B1E00F084805B1E40F0D4800A2F40F3DF80A41C04A80422214614F042
:204E7000C5F9241D05A80222214614F0BFF942F20B000DF116010FF041FBBDF81600BDF820
:204E90001410884200F3C680A41C14F8010B14F8013B8DF83A3014F8013B14F8011B8DF8D7
:204EB00039000DF139028DF83B30204602F02EFF98F800100028044400F0AC80012906F1AE
:204ED000020900F095804FF400500DF14F010FF015FB0DF14F000DF15701082213F034FAC4
:204EF00038B118990DF14F00082213F02DFA00287ED142F2010004A902F052FB42F20B0090
:204F100005A902F04DFB42F205000DF1390102F047FB0DF13A0142F2060002F041FB0DF155
:204F30003B0142F2070002F03BFB0FA942F2090002F036FB9DF83C0020B1022858D142F281
:204F5000030001E042F20D000DF13D0102F028FB4EE0042F5EDDA41C14F8010B14F8013B0F
:204F70008DF83A3014F8013B14F8011B8DF839000DF139028DF83B30204602F0C7FE002896
:204F9000044447D0189806A905F0F8FC9DF8360078B99DF83C0020B9189806A909F0E2F981
:204FB00003E0189806A908F0C3FE002818BF071C37D19DF836000DF13901162240F004004D
:204FD0008DF8360008A814F011F99DF83C0006F1020950B19DF84E100DF13D000FF058F8F7
:204FF0009DF84E10091A8DF8351006A810F0F2F97F19BF1CBDB203E0E41906F10209A41CA4
:20501000A9453FF710AF022D04DDB01C761B0027B61C02E0002067270646ABF80000AAF816
:205030000060384619B0BDE8F08FC04614A20100DD300020F8B50C46844D874EDFF820E22D
:20505000A988D128074613DCDFF818C2D12800F09480713800F0CD80401E00F0C680401E54
:2050700000F0BE80113810D04C3800F09F8007E0D2386ED0401E58D0401E31D0401E29D0CB
:20509000384614F0CDFAFF2801D1F420F8BD704D05EBC005297909B9E88860B1E888884264
:2050B00008BFFB2000F0D0802278914200F386809042C0F2838067480068804707466A88B4
:2050D00028782146801914F091F86448016838468847B8E02178022970DA7046641C62E013
:2050F000208881426ADD736BA2888100870001EB001107EB0017706B5A52E188736BC01931
:205110000822418004F10801D819001D14F06EF8706BAA7A2169C019C068D20014F066F860
:20513000706B217DC01901748DE0278829893846814243DD706A2C25A11C102205FB070048
:20515000153014F053F8706A616905FB0700816279E022882889A17890422FDD02292DDA40
:20517000706A2C234F1C03FB02031F75376B01EB4205022207EB450030E022882889618870
:2051900090421BDDEB888B4218DD604600682C2505FB02008589A942A4BF4D1C8581F06A7A
:2051B000241D02FB031100EB810048E022882889A178904202DDE87A884201DCE820F8BD0E
:2051D000736A2C254F1C05FB023502FB0013580000EBC300B36A2F710A22C018E41C2FE009
:2051F000002C30D0704608222AE064B306F1340025E01CBB2F8937B3EA88ED7A00231C466B
:2052100004FB05F1480000EBC100B16A4018716A5850F06A04FB02F100EB8100716AC9182B
:205230008860716A306B7F1E194400EB840003F12C0304F101040861E2D104E060460422AE
:20525000214613F0D3FF0020F8BDC0468419002072A4010064120020A02D00206812002036
:20527000D82D0020C42D00202DE9F047DFF80CA20746AAF13500DFF8F8810068800880F049
:20529000E78012F08BFD814908310B6800261C17641C990D0AD2C0F13E0110F10A0F4FEAF9
:2052B000E101D8BF08218C42B8BF0C1CDFF8C4C1990E0FD2590E0DD36246143A1168C1F381
:2052D00004211629A8BF20391268C2F30462162A0EDB0CE0634AD2F87C11C1F30461162994
:2052F000A8BF20391268C2F30442162A00DB203A09199146162905DA11F10A0FB8BF6FF0EC
:20531000090100E01521584C584D01F01F0242F4F85222802A6812F0030F18BF0126D20862
:2053300028BF46F002060FB146F00406424692F90740041B052C04DA9479B44208BF9188CD
:2053500066D00F28A0F10F0827DB08EB0014A4F1F0084FEA282EBEF1070F88BF4FF0070EA3
:205370007546062D88BF06255CF82570042404EB850465462C59E41B04F0FF05F70824BF2B
:20539000C4F307273D44B70824BFC4F307473D44770828BF05EB146501E00025AE465CF852
:2053B0002EC0F7080CF0FF0424BFCCF307273C44B70824BFCCF307473C44770828BF04EB1D
:2053D0001C64ADB2A9EB0101A8EB0E277D43002905F1800504EB1524D8BF012103F0FF0346
:2053F00034254D43A9B259434FF6FF73B1FBF4F18B4238BF191C802889B2918005DA10F1A8
:20541000800FB8BF6FF07F0000E07F20D0719671194800681F2910604FF0000008D340F204
:20543000FF128A4206D24908401C8A42FBD301E01F219180124F0F39090940EAC10047EA57
:205450000001CAF8FB1F0026CAF8FF6FBDE8F0870C490D4F424608200F60921D1070BDE849
:20547000F087C0463C1100506E620840242208409C3000209C130050082009403500094082
:2054900000E7A48030100940FDFDA400AC3F005001282DE9FE4F40F0EE80DFF810B2DBF8F9
:2054B000DC00012840F0E4800220CBF8DC0013F04FF9012011F0B6FD5FEA000805D001201B
:2054D000CBF8DC0013F054F9D7E014F06CFB6C49029000200860012012F01EFA012818BFA1
:2054F000002003D100200DF055FC0120654900900020654F08603868112014F0D1F90028D8
:205510000CBF00240124102014F0CAF908B144F002040F2014F0C4F908B144F004040B206D
:2055300014F0BEF930B1624814300068574E016B308888470A2014F0B3F9002600B10126F9
:205550004FF0805A0AF5DC75301C04D02868504E016B308888474F480126066028688169F3
:2055700044F0200088474C48066014F093F900F001010191400814D2484814F050F9814618
:20559000B9F1040FF8D0B9F1010F05D1DAF8D80142684248032190474149086820F00300FF
:2055B00008600020FFF760FE2B683868986B8047019801280DD0B9F1010F05D1DAF8D80128
:2055D00042683648314690473549086840F0030008602C48066028684169204688470B2048
:2055F00014F05EF920B12868284BC16A188888470A2014F055F920B12868254BC16A1888BA
:2056100088472448032206602349CBF8DC2000230B602868416B204688470128F9D13868F7
:20563000042011F0FFFC044615481E490660386808688009FCD30098012802D130460DF057
:20565000A9FB14F015F9082011F0ECFC07460298CBF8DC6014F07EFB134800880DF034F804
:2056700013F086F857EA040018BF4FF0FF3804E06FF0040801E06FF001084046BDE8FE8FB7
:205690000C400940000222432C2009409AA5010096A50100282008608001044300400340F2
:2056B0002422084014100940A0A7010010100020A40100102DE9F043002B08BF002A10D15C
:2056D0000029BCBF00204FF0004106DB50EA01071CBF6FF000006FF000410CF0D0FCBDE80C
:2056F000F0835FEA530898EA610803D50026404266EB01015FF0000913F0004E03D0002623
:20571000524266EB03031C461546002C08BF8D429CBF2C1C0025070C47EA01470E0CB442AB
:2057300008BFBD429EBF240444EA15442D04070A47EA01670E0AB44208BFBD429EBF240255
:2057500044EA15642D02470847EAC1774E08B44208BFBD4200F29280870847EA81778E0847
:20577000B44208BFBD427BD8C70847EA4177CE08B44208BFBD4265D8070947EA01770E09B3
:20579000B44208BFBD424FD8470947EAC1674E09B44208BFBD4239D8870947EA81678E0909
:2057B000B44208BFBD4223D8C70947EA4167CE09B44208BFBD420DD8E60146EA5566EF013F
:2057D000B14208BFB84201D3C01BB14159EB09094EEB0E0EA60146EA9566AF01B14208BF7D
:2057F000B84201D3C01BB14159EB09094EEB0E0E660146EAD5666F01B14208BFB84201D389
:20581000C01BB14159EB09094EEB0E0E260146EA15762F01B14208BFB84201D3C01BB14199
:2058300059EB09094EEB0E0EE60046EA5576EF00B14208BFB84201D3C01BB14159EB090932
:205850004EEB0E0EA60046EA9576AF00B14208BFB84201D3C01BB14159EB09094EEB0E0E53
:20587000660046EAD5766F00B14208BFB84201D3C01BB14159EB09094EEB0E0EA14208BF1E
:20589000A84201D3401BA14159EB09094EEB0E0EA34208BFAA423EBF2D0A45EA0465240AC0
:2058B0008AD373464A465FEA080803D50026404266EB01015FEA480803D50026524266EB8A
:2058D00003031E4617460B46024631463846BDE8F08370472DE9F047064637680C465FEAC1
:2058F0000208ADF1180D14BF00214FF0FF3107F14800814613F08BFE002818BF0B2040F07B
:20591000E68000257448FC60B8F1010F057007D06570022011F05EFD062011F05BFD01E01C
:20593000012060702078012840F29080801E012857D9801E01282CD9801E012800F2B880AF
:2059500014F01DF98246A078009021782846062908BF0120019001200290A068228A6368CC
:20597000E16806F09DFF0746504614F0F7F9002F40F0A080B8F1000F02D013F0B3FB02E0C9
:20599000304611F0D4FE002800F0878014F001F921E014F0F4F8012782460097A168A278F6
:2059B000606824782B46042C08BF3B1C08F02CFD0746504614F0D2F9002F7BD1B8F1000FAE
:2059D00002D013F08FFB02E0304611F0B0FE002863D011F09FFC3F49C1F8B0510D6007465E
:2059F00068E014F0CCF88246E08A0090E0680190208B0290A0780390207D0490012105911B
:205A100022782846022A08BF081CA368E178626801F046FF0746504614F0A0F9002F49D12A
:205A3000B8F1000F02D013F05DFB02E0304611F07EFE002831D011F09DFC071C3AD1E07853
:205A5000A168E28A23690BF023FAC8E714F097F88246E08A0090E0680190208B0290A078EB
:205A70000390207D049001200590277807B90546E1786268A368284602F08CF807465046FD
:205A900014F06CF9B7B9B8F1000F02D013F02AFB02E0304611F04BFE08B9142017E011F0DC
:205AB00051FC071C06D1E07821690EF0E9FF96E74FF0FF37B8F1010F05D0022011F012F919
:205AD000062011F00FF9484614F069F8384606B0BDE8F087504502409E2D00202DE9F04F2D
:205AF000664E80463068416EADF11C0D02A88847634C206808B914F00BF811F0FBFC002876
:205B100000F0B8805F4901205F4F08703978012902D000210BF004F820684568048912F0D5
:205B3000C7FE5A4E2888000908D3307830B1214628460AF001FB002840F09C8021462846B7
:205B50000AF09AFC642005A90FF016FA50483178DFF840B1007831B95846007807F0FEFAF4
:205B7000012804D083E007F0F9FA01287FD14A4FA01C86B20DF1150107F110000680E9201A
:205B90000FF0FAF99DF81500012805D13446C4F3022040F0180005E0241DA4B2C4F302206A
:205BB00040F0080005F8010D002105F8014D3C46E5619DF814706180002F0CBF374838486B
:205BD0000226384A8DF80C608946A061364DCDF80890394F1060354B6980B81C0180687BD1
:205BF00020F00F0040F00300687318688047DFF8C0A00690B8F1010F1AD0B8F1040F17D00E
:205C1000B8F1000F13D0B8F1050F2F460CD0B8F1030F07D158461030007810F0FDFBC07BAF
:205C3000022806D0274602E0DFF888A001E03D462F4612480068214B056DB0468DE800031F
:205C50001868394602AA5346A8471D491D4E08803168002809D41C4A92F900001B4F401C53
:205C7000107006983C60884704E0069888471A200AF014FE07B0BDE8F08FC046D41300200C
:205C9000B416002063190020791A0020E8120020DE300020C72B0020041800204E9055559D
:205CB0000E7A555594160020A0180020641200200180000069AE0000BC180020D0150020D9
:205CD00024160020681200206C190020C41300202DE9F0411C4615468C4208BF854282BF83
:205CF00000230022E5E0002C08BF002D0AD100290EBF00286FF000006FF0000100F0E1F8E9
:205D1000BDE8F0815FF000085FF0000E002C08BF8D429CBF2C1C0025070C47EA01470E0C79
:205D3000B44208BFBD429EBF5FEA044444EA15445FEA0545070A47EA01670E0AB44208BF10
:205D5000BD429EBF5FEA042444EA15645FEA0525470847EAC1774E08B44208BFBD4200F290
:205D70009380870847EA81778E08B44208BFBD427CD8C70847EA4177CE08B44208BFBD4258
:205D900066D8070947EA01770E09B44208BFBD4250D8470947EAC1674E09B44208BFBD4245
:205DB0003AD8870947EA81678E09B44208BFBD4224D8C70947EA4167CE09B44208BFBD428D
:205DD0000DD8E60146EA5566EF01B14208BFB84201D3C01BB14158EB08085EEB0E0EA60158
:205DF00046EA95664FEA8517B14208BFB84201D3C01BB14158EB08084EEB0E0E660146EAFF
:205E1000D5666F01B14208BFB84201D3C01BB14158EB08084EEB0E0E260146EA15762F01B8
:205E3000B14208BFB84201D3C01BB14158EB08085EEB0E0EE60046EA5576EF00B14208BFBB
:205E5000B84201D3C01BB14158EB08084EEB0E0EA60046EA9576AF00B14208BFB84201D3D7
:205E7000C01BB14158EB08084EEB0E0E660046EAD5766F00B14208BFB84201D3C01BB141F8
:205E900058EB08085EEB0E0EA14208BFA84201D3401BA14158EB08085EEB0E0EA34208BF31
:205EB000AA423EBF2D0A45EA0465240A89D3734642461E4617460B46024631463846BDE85B
:205ED000F08170472DE9F043044668480E4601681F461546ADF13C0DBEB1B5B130784FF027
:205EF000010808FA00F001420FD01046002105F0A5F86660A56013F042FE5D4D814628784D
:205F1000022804DB484613F029FF0020ABE000285FD103F07DFE5749086840F00200086094
:205F300007A813F0F7FB544E5449707807AA099005F1B40010F0F8F9514905F1E80007AA78
:205F500010F0F2F907A813F0A5FB192107AB30784C4A089005F1380010F0B8F84A4A05F1CA
:205F700054001A2107AB10F0B1F84849002205F1900013460EF00CFD454A05F124000421C0
:205F9000002311F033FFB078012802D10E2007F029FF05F1780013F0FDF905F1700013F05A
:205FB000F9F9002085F820004FF4FA72C5F824212875072185F8B811E861364B1870C5F857
:205FD000282185F821000526A86033492E612878A96105EB8001401CC1F81C41C0B22870F5
:205FF000484613F0BBFE1FB9684613F005FA6F4638682060B86941462062388A6174608247
:20601000786800280CBF40F6C4100021E06021742248A061E0616061F86800B1A06178693D
:2060300000B1E061B86800B16061A02204F1280000210BF05FF904F14000002111F0DAFC4C
:206050000BA813F0B7FC16490D9404F1780000220BAB0EF09DFC134904F19C0000220BAB26
:206070000EF096FC20460FB0BDE8F083D42108403821002000200940BC1900206590010039
:2060900049CA000001420100310A0100C1870100814B0100C230002041BB0000FF7F0000BB
:2060B000D98B0100FD9A01002DE9FE43DFF8C081704D0E46B00958D3444604F11C074DE0A0
:2060D0000178D0290EDBD02909D181783970C17879700179B97085687D60C168B96012F00D
:2060F00047FC48E004F1100528600CF059FC28460FF046FD3FE0884794F82410491E84F801
:206110002410A9688847009801788DF8041020614378CBB1DC2B0DD0DD2B0BD0E42B09D04A
:20613000F32B07D0DE2B05D0DF2B03D0E82B18BFDB2B0BD106F046F99DF80400162805D1F1
:2061500068460FF01DFD01E00CF02AFC9DF80400162803D004F110000FF012FD384610F02A
:2061700097FC002869680090C5D1F00BA9464446C00306D0404F20780AF04EFB002800902E
:206190009ED1700905D32E208DF8040001A80CF007FC700805D325208DF8040001A80CF0ED
:2061B000FFFBB00805D326208DF8040001A80CF0F7FBF00805D327208DF8040001A80CF09A
:2061D000EFFB300905D329208DF8040001A80CF0E7FBF00908D300208DF805002D278DF804
:2061F000047001A80CF0DCFB300A08D300208DF8050030278DF8047001A80CF0D1FB700AA5
:2062100008D300208DF8050035278DF8047001A80CF0C6FBF00A08D300208DF80500232765
:206230008DF8047001A80CF0BBFBB00A08D300208DF8050036278DF8047001A80CF0B0FB15
:20625000E068D9F8041080B18847E16800270091D9F80810E7608847009804F110063060CE
:206270000CF09EFB30460FF08BFC0020BDE8FE83082F002060120020A41900202DE9F04328
:20629000894614460546ADF12C0D694610F08CFC5FEA000800F0C580AD1C0226284602A9DC
:2062B0000EF024FB071C00F0BC809DF80900814509D0ED19BF1908F10200BF1CAD1CBEB238
:2062D000B042EBDCADE0401E05F1020500F08D80401E50D0801E33D0401E26D0401E20D04F
:2062F000401E18BF622040F0AC80202F40F0998020462946082212F079FF083504F1080030
:206310000822294612F072FF05F1080704F110000822394612F06AFF07F1080518340822C8
:206330000BE0022F7DD1022207E0202F79DC20460021202213F04FFC3A46204629467DE06B
:20635000042F6ED120462946022212F04FFFAD1C15F8010BA070287800F00100E0702878FF
:20637000C0F3400020712878C0F38000607128784011A07164E00A2F53DD0DF11200002105
:20639000162213F028FC20462946042212F02EFF2D1D201D0222294612F028FF42F20B00E2
:2063B00004A90EF0ABF8BDF81000A188884238DCA81C10F8011BA17110F8011BE17110F83B
:2063D000011B217210F8011BC1F3C202A2720DF1120201F09BFC20B39DF82700A0819DF86F
:2063F0001670E78104F1100025E0042F19DD0DF112000021162213F0EEFB15F8010B20706E
:2064100015F8010B607015F8010BA07015F8011B0DF11202C1F3C2002071284601F076FC47
:2064300008B967200DE09DF82700E0809DF81670278104F10A0011220DF1160112F0D6FE1B
:2064500000200BB0BDE8F0832DE9F04FADF1240D079003F0DDFB6048007811F047FA5F4DA5
:206470000024012806D90C3804D0401E0ED0401E09D006E012F0B2FD022804BF01210C1C87
:2064900006D0696805E005211F2401E0032107246960534A1068C0F38150012806D152F81B
:2064B0000C0C0127020E07FA02F0044313F01AF9524AFF234018401E471C28607F1E02F836
:2064D000013BFBD1079A1268002702F0FF03FE2B20D0DDF81CC096463B4601260EF0FF0221
:2064F000FF2A10D0904205D3914203D806FA02F2144201D002206CE017430EF0FF02DFF872
:20651000FCE00EF802305CF804EF5B1C0EF0FF02FE2AE5D1092007F065FC07980121A86072
:2065300005F1280011F066FA05F19806A8464FF0010A4FF0040B0025A9460AFA05F004425F
:2065500016D1074204BF05F0FF0141F4C04104D02A480799405D51F82010224805F016FD9F
:20657000E8B24FF0FF3112F013FBC6F8009001E0C6F800B0D8F800006D1C361D8542DCD92D
:2065900004A813F087F8184C184A2078102104AB059008F10C000FF099FD684613F0BAF8ED
:2065B000CDF80C906A4660681149029008F164000FF0BAFE0F4951F80D0C20F4F85040F4A8
:2065D000005041F80D0C0C4FC1F8FFAF4846C7F800A009B0BDE8F08FC3300020FC0E002040
:2065F000B43F0050007FC767A8A80100BD8B01009D5E01000D30094008000940400F0020BF
:20661000F0B542F20400ADF1240D0DF11B010DF075FF42F205000DF11A010DF06FFF42F242
:20663000010069460DF06AFF5F4C58489DF81B10606364204143E162554921659DF81A1038
:206650004843A0645348E0665348007858B342F203000DF106010DF051FF0DF1060011F00E
:2066700087FF9DF81A0070B1009860B104F1440001210DF019FF20460DF096FE012084F807
:20669000200084F8240042F202000DF106010DF035FF0DF1060011F07BFF04F12800012100
:2066B0000DF002FF11E042F202000DF106010DF025FF0DF1060011F06BFF04F128000121D1
:2066D0000DF0F2FE20460DF04CF9344800780FF0A3FEC07B022804BF012084F8800094F8B0
:2066F000840000284FD111F01DFB42F21B0001A90DF004FF2A4DBDF8040001A9A88442F272
:206710001C000DF0FBFEBDF8040001A9E88442F21D000DF0F3FE234EBDF80400311D088049
:2067300007A95D200EF028FC9DF81C000127002806BF002085F8340085F83470A88C40B11D
:2067500000EB401080B211F07DFCE86208B913F010FAE88C48B1410001EB800188B211F0D4
:2067700071FC286308B913F004FAB08838B1C00080B211F067FC306008B913F0FAF90AF097
:206790000FF984F8847009B0F0BDC046F14901001DB3000041930100DD300020D72B0020D6
:2067B0001C2E0020A4300020FC2A00202DE9F04F624E0546B07AADF15C0DC00011F042FCA5
:2067D0000C9001208DF84800E87D092205F118018DF849000DF14A0012F008FD584800685B
:2067F000804715900DF14601812000F00BFBDFF854B1A87DA8B3012004278DF803004FF0D2
:20681000000A8DF80470AC8A8DF802A06946ADF80040D220FEF70EFCB1464FF6FF78544636
:2068300016941AE001EBC00150460860A88A8880D42008A9FEF7FEFB02E04046ADF804001B
:206850008DF807A0A88A8DF806A06946ADF80000D120FEF7EFFB641CA4B2B9F80600A0420C
:206870002FDCA88A0DF149020027511CADF8380012788DF83A700DF13B0012F0B7FC012049
:206890000EA98DF84400D020FEF7D4FB071C0FD1A88A29461022ADF808000DF10A0012F027
:2068B000A5FC286902A90790D320FEF7C3FB07460C9812F03DF85846016815988847F8B259
:2068D00039E0A88AADF802406946ADF80000D12000F098FA0028B0D1BDF804008045ACD00C
:2068F000ADF8200008A9D42000F08CFA002818BF0C9819D199F80A70002F04BF0C995046E3
:206910000ED00C993B465046A1F1080208329688B04505D0B44203D05B1E00F10100F5D115
:2069300087427FF47FAF084612F002F85846016815988847192017B0BDE8F08F841900202F
:2069500064120020681200202DE9F843624C00214022204613F03FF9604D05F108000188A0
:206970002C20484380B211F06DFB606208B913F0CFF8E97A28894843410001EBC00188B281
:2069900011F060FBA06208B913F0C2F8E98828894843800080B211F055FBE06208B913F055
:2069B000B7F82889800080B211F04CFB206308B913F0AEF82F8987B100221146606A666A7D
:2069D000636A40187F1E027506EB0100027103EB0100828101F12C01F0D1A988880000EB93
:2069F000011080B211F02EFB606308B913F090F800274FF6FF78B94624E0A87AC00011F042
:206A100021FB616B636BBE0006EB07168919C8609819C06808B913F07BF8A87A80B14A4627
:206A3000616B8919C968D30043F80190616B8919C968401E02F101021944A1F80480EFD1DB
:206A50007F1CBFB2A888B842D7DCE01DFF21082213F0C1F8FF2104F110000822E17313F094
:206A7000BAF80323A4F822802F8984F82030A7B14FF0010C04264A46206B910001F800C039
:206A9000206B40184670206B40188370206B7F1E02F101020844C670EED10121042604F1D7
:206AB00034000522022700F8041F467082707F1EC170F8D1A88884F83C3040B14946626B83
:206AD000401E0A4401F11401A2F80280F7D102202071BDE8F883C046A02D0020841900208C
:206AF0002DE9F8435D4D80462878002788B1AA6B7AB1A86D68B142F21A0069469047A86D6E
:206B1000804730B19DF8000018B1B8F1E10F08BF0127DFF8509109F1530000780FF07CFCE3
:206B3000C07B02280CBF052601264D4C2068002800F09180B8F1000F76D0B8F11B0F06D1D1
